{
  "contractName": "ITHelpdesk",
  "abi": [
    {
      "inputs": [],
      "stateMutability": "nonpayable",
      "type": "constructor"
    },
    {
      "anonymous": false,
      "inputs": [
        {
          "indexed": true,
          "internalType": "address",
          "name": "owner",
          "type": "address"
        },
        {
          "indexed": true,
          "internalType": "address",
          "name": "approved",
          "type": "address"
        },
        {
          "indexed": true,
          "internalType": "uint256",
          "name": "tokenId",
          "type": "uint256"
        }
      ],
      "name": "Approval",
      "type": "event"
    },
    {
      "anonymous": false,
      "inputs": [
        {
          "indexed": true,
          "internalType": "address",
          "name": "owner",
          "type": "address"
        },
        {
          "indexed": true,
          "internalType": "address",
          "name": "operator",
          "type": "address"
        },
        {
          "indexed": false,
          "internalType": "bool",
          "name": "approved",
          "type": "bool"
        }
      ],
      "name": "ApprovalForAll",
      "type": "event"
    },
    {
      "anonymous": false,
      "inputs": [
        {
          "indexed": true,
          "internalType": "uint256",
          "name": "ticketId",
          "type": "uint256"
        },
        {
          "indexed": false,
          "internalType": "string",
          "name": "title",
          "type": "string"
        },
        {
          "indexed": false,
          "internalType": "string",
          "name": "issue",
          "type": "string"
        },
        {
          "indexed": false,
          "internalType": "string",
          "name": "description",
          "type": "string"
        },
        {
          "indexed": false,
          "internalType": "uint8",
          "name": "difficulty",
          "type": "uint8"
        },
        {
          "indexed": false,
          "internalType": "uint8",
          "name": "deviceType",
          "type": "uint8"
        }
      ],
      "name": "TicketCreated",
      "type": "event"
    },
    {
      "anonymous": false,
      "inputs": [
        {
          "indexed": true,
          "internalType": "uint256",
          "name": "ticketId",
          "type": "uint256"
        }
      ],
      "name": "TicketResolved",
      "type": "event"
    },
    {
      "anonymous": false,
      "inputs": [
        {
          "indexed": true,
          "internalType": "address",
          "name": "from",
          "type": "address"
        },
        {
          "indexed": true,
          "internalType": "address",
          "name": "to",
          "type": "address"
        },
        {
          "indexed": true,
          "internalType": "uint256",
          "name": "tokenId",
          "type": "uint256"
        }
      ],
      "name": "Transfer",
      "type": "event"
    },
    {
      "inputs": [
        {
          "internalType": "address",
          "name": "owner",
          "type": "address"
        }
      ],
      "name": "balanceOf",
      "outputs": [
        {
          "internalType": "uint256",
          "name": "",
          "type": "uint256"
        }
      ],
      "stateMutability": "view",
      "type": "function",
      "constant": true
    },
    {
      "inputs": [],
      "name": "contractOwner",
      "outputs": [
        {
          "internalType": "address payable",
          "name": "",
          "type": "address"
        }
      ],
      "stateMutability": "view",
      "type": "function",
      "constant": true
    },
    {
      "inputs": [
        {
          "internalType": "uint256",
          "name": "tokenId",
          "type": "uint256"
        }
      ],
      "name": "getApproved",
      "outputs": [
        {
          "internalType": "address",
          "name": "",
          "type": "address"
        }
      ],
      "stateMutability": "view",
      "type": "function",
      "constant": true
    },
    {
      "inputs": [
        {
          "internalType": "address",
          "name": "owner",
          "type": "address"
        },
        {
          "internalType": "address",
          "name": "operator",
          "type": "address"
        }
      ],
      "name": "isApprovedForAll",
      "outputs": [
        {
          "internalType": "bool",
          "name": "",
          "type": "bool"
        }
      ],
      "stateMutability": "view",
      "type": "function",
      "constant": true
    },
    {
      "inputs": [],
      "name": "name",
      "outputs": [
        {
          "internalType": "string",
          "name": "",
          "type": "string"
        }
      ],
      "stateMutability": "view",
      "type": "function",
      "constant": true
    },
    {
      "inputs": [
        {
          "internalType": "address",
          "name": "operator",
          "type": "address"
        },
        {
          "internalType": "bool",
          "name": "approved",
          "type": "bool"
        }
      ],
      "name": "setApprovalForAll",
      "outputs": [],
      "stateMutability": "nonpayable",
      "type": "function"
    },
    {
      "inputs": [
        {
          "internalType": "bytes4",
          "name": "interfaceId",
          "type": "bytes4"
        }
      ],
      "name": "supportsInterface",
      "outputs": [
        {
          "internalType": "bool",
          "name": "",
          "type": "bool"
        }
      ],
      "stateMutability": "view",
      "type": "function",
      "constant": true
    },
    {
      "inputs": [],
      "name": "symbol",
      "outputs": [
        {
          "internalType": "string",
          "name": "",
          "type": "string"
        }
      ],
      "stateMutability": "view",
      "type": "function",
      "constant": true
    },
    {
      "inputs": [],
      "name": "ticketCount",
      "outputs": [
        {
          "internalType": "uint256",
          "name": "",
          "type": "uint256"
        }
      ],
      "stateMutability": "view",
      "type": "function",
      "constant": true
    },
    {
      "inputs": [
        {
          "internalType": "uint256",
          "name": "",
          "type": "uint256"
        }
      ],
      "name": "tickets",
      "outputs": [
        {
          "internalType": "uint256",
          "name": "id",
          "type": "uint256"
        },
        {
          "internalType": "address",
          "name": "user",
          "type": "address"
        },
        {
          "internalType": "string",
          "name": "title",
          "type": "string"
        },
        {
          "internalType": "string",
          "name": "issue",
          "type": "string"
        },
        {
          "internalType": "string",
          "name": "description",
          "type": "string"
        },
        {
          "internalType": "bool",
          "name": "resolved",
          "type": "bool"
        },
        {
          "internalType": "enum ITHelpdesk.Difficulty",
          "name": "difficulty",
          "type": "uint8"
        },
        {
          "internalType": "enum ITHelpdesk.DeviceType",
          "name": "deviceType",
          "type": "uint8"
        },
        {
          "internalType": "string",
          "name": "solution",
          "type": "string"
        }
      ],
      "stateMutability": "view",
      "type": "function",
      "constant": true
    },
    {
      "inputs": [
        {
          "internalType": "uint256",
          "name": "tokenId",
          "type": "uint256"
        }
      ],
      "name": "tokenURI",
      "outputs": [
        {
          "internalType": "string",
          "name": "",
          "type": "string"
        }
      ],
      "stateMutability": "view",
      "type": "function",
      "constant": true
    },
    {
      "inputs": [
        {
          "internalType": "address",
          "name": "from",
          "type": "address"
        },
        {
          "internalType": "address",
          "name": "to",
          "type": "address"
        },
        {
          "internalType": "uint256",
          "name": "tokenId",
          "type": "uint256"
        }
      ],
      "name": "transferFrom",
      "outputs": [],
      "stateMutability": "nonpayable",
      "type": "function"
    },
    {
      "inputs": [
        {
          "internalType": "string",
          "name": "_title",
          "type": "string"
        },
        {
          "internalType": "string",
          "name": "_issue",
          "type": "string"
        },
        {
          "internalType": "string",
          "name": "_description",
          "type": "string"
        },
        {
          "internalType": "uint8",
          "name": "_difficulty",
          "type": "uint8"
        },
        {
          "internalType": "uint8",
          "name": "_deviceType",
          "type": "uint8"
        }
      ],
      "name": "createTicket",
      "outputs": [
        {
          "internalType": "uint256",
          "name": "",
          "type": "uint256"
        }
      ],
      "stateMutability": "payable",
      "type": "function",
      "payable": true
    },
    {
      "inputs": [
        {
          "internalType": "uint256",
          "name": "_ticketId",
          "type": "uint256"
        },
        {
          "internalType": "string",
          "name": "_title",
          "type": "string"
        },
        {
          "internalType": "string",
          "name": "_issue",
          "type": "string"
        },
        {
          "internalType": "string",
          "name": "_description",
          "type": "string"
        },
        {
          "internalType": "enum ITHelpdesk.Difficulty",
          "name": "_difficulty",
          "type": "uint8"
        },
        {
          "internalType": "enum ITHelpdesk.DeviceType",
          "name": "_deviceType",
          "type": "uint8"
        }
      ],
      "name": "updateTicket",
      "outputs": [],
      "stateMutability": "nonpayable",
      "type": "function"
    },
    {
      "inputs": [
        {
          "internalType": "uint256",
          "name": "_ticketId",
          "type": "uint256"
        },
        {
          "internalType": "enum ITHelpdesk.TicketStatus",
          "name": "_status",
          "type": "uint8"
        }
      ],
      "name": "changeStatus",
      "outputs": [],
      "stateMutability": "nonpayable",
      "type": "function"
    },
    {
      "inputs": [
        {
          "internalType": "uint256",
          "name": "_ticketId",
          "type": "uint256"
        },
        {
          "internalType": "string",
          "name": "_solution",
          "type": "string"
        }
      ],
      "name": "ticketSolution",
      "outputs": [],
      "stateMutability": "nonpayable",
      "type": "function"
    },
    {
      "inputs": [
        {
          "internalType": "uint256",
          "name": "_ticketId",
          "type": "uint256"
        },
        {
          "internalType": "string",
          "name": "_note",
          "type": "string"
        }
      ],
      "name": "ticketNotes",
      "outputs": [],
      "stateMutability": "nonpayable",
      "type": "function"
    },
    {
      "inputs": [
        {
          "internalType": "uint256",
          "name": "_ticketId",
          "type": "uint256"
        }
      ],
      "name": "resolveTicket",
      "outputs": [],
      "stateMutability": "nonpayable",
      "type": "function"
    },
    {
      "inputs": [
        {
          "internalType": "uint256",
          "name": "_ticketId",
          "type": "uint256"
        }
      ],
      "name": "fetchTicket",
      "outputs": [
        {
          "components": [
            {
              "internalType": "uint256",
              "name": "id",
              "type": "uint256"
            },
            {
              "internalType": "address",
              "name": "user",
              "type": "address"
            },
            {
              "internalType": "string",
              "name": "title",
              "type": "string"
            },
            {
              "internalType": "string",
              "name": "issue",
              "type": "string"
            },
            {
              "internalType": "string",
              "name": "description",
              "type": "string"
            },
            {
              "internalType": "bool",
              "name": "resolved",
              "type": "bool"
            },
            {
              "internalType": "enum ITHelpdesk.Difficulty",
              "name": "difficulty",
              "type": "uint8"
            },
            {
              "internalType": "enum ITHelpdesk.DeviceType",
              "name": "deviceType",
              "type": "uint8"
            },
            {
              "internalType": "string",
              "name": "solution",
              "type": "string"
            },
            {
              "internalType": "string[]",
              "name": "notes",
              "type": "string[]"
            }
          ],
          "internalType": "struct ITHelpdesk.Ticket",
          "name": "",
          "type": "tuple"
        }
      ],
      "stateMutability": "view",
      "type": "function",
      "constant": true
    },
    {
      "inputs": [
        {
          "internalType": "uint256",
          "name": "_ticketId",
          "type": "uint256"
        }
      ],
      "name": "getTicketStatus",
      "outputs": [
        {
          "internalType": "bool",
          "name": "",
          "type": "bool"
        }
      ],
      "stateMutability": "view",
      "type": "function",
      "constant": true
    },
    {
      "inputs": [
        {
          "internalType": "uint256",
          "name": "_ticketId",
          "type": "uint256"
        }
      ],
      "name": "getTicketDifficulty",
      "outputs": [
        {
          "internalType": "enum ITHelpdesk.Difficulty",
          "name": "",
          "type": "uint8"
        }
      ],
      "stateMutability": "view",
      "type": "function",
      "constant": true
    },
    {
      "inputs": [],
      "name": "getNumberOfTickets",
      "outputs": [
        {
          "internalType": "uint256",
          "name": "",
          "type": "uint256"
        }
      ],
      "stateMutability": "view",
      "type": "function",
      "constant": true
    },
    {
      "inputs": [
        {
          "internalType": "address",
          "name": "from",
          "type": "address"
        },
        {
          "internalType": "address",
          "name": "to",
          "type": "address"
        },
        {
          "internalType": "uint256",
          "name": "tokenId",
          "type": "uint256"
        }
      ],
      "name": "safeTransferFrom",
      "outputs": [],
      "stateMutability": "nonpayable",
      "type": "function"
    },
    {
      "inputs": [
        {
          "internalType": "address",
          "name": "from",
          "type": "address"
        },
        {
          "internalType": "address",
          "name": "to",
          "type": "address"
        },
        {
          "internalType": "uint256",
          "name": "tokenId",
          "type": "uint256"
        },
        {
          "internalType": "bytes",
          "name": "data",
          "type": "bytes"
        }
      ],
      "name": "safeTransferFrom",
      "outputs": [],
      "stateMutability": "nonpayable",
      "type": "function"
    },
    {
      "inputs": [
        {
          "internalType": "address",
          "name": "to",
          "type": "address"
        },
        {
          "internalType": "uint256",
          "name": "tokenId",
          "type": "uint256"
        }
      ],
      "name": "approve",
      "outputs": [],
      "stateMutability": "nonpayable",
      "type": "function"
    },
    {
      "inputs": [
        {
          "internalType": "uint256",
          "name": "tokenId",
          "type": "uint256"
        }
      ],
      "name": "ownerOf",
      "outputs": [
        {
          "internalType": "address",
          "name": "",
          "type": "address"
        }
      ],
      "stateMutability": "view",
      "type": "function",
      "constant": true
    }
  ],
  "bytecode": "0x60806040523480156200001157600080fd5b506040518060400160405280601181526020017f43727970746f54656368537570706f72740000000000000000000000000000008152506040518060400160405280600381526020017f435453000000000000000000000000000000000000000000000000000000000081525081600090816200008f919062000365565b508060019081620000a1919062000365565b50505033600960006101000a81548173ffffffffffffffffffffffffffffffffffffffff021916908373ffffffffffffffffffffffffffffffffffffffff1602179055506200044c565b600081519050919050565b7f4e487b7100000000000000000000000000000000000000000000000000000000600052604160045260246000fd5b7f4e487b7100000000000000000000000000000000000000000000000000000000600052602260045260246000fd5b600060028204905060018216806200016d57607f821691505b60208210810362000183576200018262000125565b5b50919050565b60008190508160005260206000209050919050565b60006020601f8301049050919050565b600082821b905092915050565b600060088302620001ed7fffffffffffffffffffffffffffffffffffffffffffffffffffffffffffffffff82620001ae565b620001f98683620001ae565b95508019841693508086168417925050509392505050565b6000819050919050565b6000819050919050565b600062000246620002406200023a8462000211565b6200021b565b62000211565b9050919050565b6000819050919050565b620002628362000225565b6200027a62000271826200024d565b848454620001bb565b825550505050565b600090565b6200029162000282565b6200029e81848462000257565b505050565b5b81811015620002c657620002ba60008262000287565b600181019050620002a4565b5050565b601f8211156200031557620002df8162000189565b620002ea846200019e565b81016020851015620002fa578190505b6200031262000309856200019e565b830182620002a3565b50505b505050565b600082821c905092915050565b60006200033a600019846008026200031a565b1980831691505092915050565b600062000355838362000327565b9150826002028217905092915050565b6200037082620000eb565b67ffffffffffffffff8111156200038c576200038b620000f6565b5b62000398825462000154565b620003a5828285620002ca565b600060209050601f831160018114620003dd5760008415620003c8578287015190505b620003d4858262000347565b86555062000444565b601f198416620003ed8662000189565b60005b828110156200041757848901518255600182019150602085019450602081019050620003f0565b8683101562000437578489015162000433601f89168262000327565b8355505b6001600288020188555050505b505050505050565b614beb806200045c6000396000f3fe6080604052600436106101815760003560e01c806395d89b41116100d1578063ce606ee01161008a578063e23e114811610064578063e23e1148146105c5578063e985e9c5146105ee578063f893a4291461062b578063fb87774c1461065457610181565b8063ce606ee01461053f578063cfbd900f1461056a578063d0018b611461059557610181565b806395d89b411461041f578063a22cb4651461044a578063b88d4fde14610473578063bacc10ae1461049c578063c5a8a2ab146104d9578063c87b56dd1461050257610181565b806345d8c7861161013e5780636352211e116101185780636352211e146103515780636b9d27381461038e57806370a08231146103b75780639582260a146103f457610181565b806345d8c786146102a657806350b44712146102cf5780635105d5261461031457610181565b806301ffc9a71461018657806306fdde03146101c3578063081812fc146101ee578063095ea7b31461022b57806323b872dd1461025457806342842e0e1461027d575b600080fd5b34801561019257600080fd5b506101ad60048036038101906101a89190612e42565b610691565b6040516101ba9190612e8a565b60405180910390f35b3480156101cf57600080fd5b506101d8610773565b6040516101e59190612f35565b60405180910390f35b3480156101fa57600080fd5b5061021560048036038101906102109190612f8d565b610805565b6040516102229190612ffb565b60405180910390f35b34801561023757600080fd5b50610252600480360381019061024d9190613042565b61084b565b005b34801561026057600080fd5b5061027b60048036038101906102769190613082565b6108bd565b005b34801561028957600080fd5b506102a4600480360381019061029f9190613082565b61091d565b005b3480156102b257600080fd5b506102cd60048036038101906102c89190612f8d565b610a57565b005b3480156102db57600080fd5b506102f660048036038101906102f19190612f8d565b610c0c565b60405161030b999897969594939291906131a3565b60405180910390f35b34801561032057600080fd5b5061033b60048036038101906103369190612f8d565b610ec1565b6040516103489190613499565b60405180910390f35b34801561035d57600080fd5b5061037860048036038101906103739190612f8d565b611301565b6040516103859190612ffb565b60405180910390f35b34801561039a57600080fd5b506103b560048036038101906103b091906135f0565b6113b2565b005b3480156103c357600080fd5b506103de60048036038101906103d9919061364c565b6113da565b6040516103eb9190613679565b60405180910390f35b34801561040057600080fd5b50610409611491565b6040516104169190613679565b60405180910390f35b34801561042b57600080fd5b5061043461149b565b6040516104419190612f35565b60405180910390f35b34801561045657600080fd5b50610471600480360381019061046c91906136c0565b61152d565b005b34801561047f57600080fd5b5061049a600480360381019061049591906137a1565b611543565b005b3480156104a857600080fd5b506104c360048036038101906104be9190612f8d565b6115a5565b6040516104d09190613824565b60405180910390f35b3480156104e557600080fd5b5061050060048036038101906104fb9190613864565b6115d2565b005b34801561050e57600080fd5b5061052960048036038101906105249190612f8d565b6116fe565b6040516105369190612f35565b60405180910390f35b34801561054b57600080fd5b50610554611766565b60405161056191906138c5565b60405180910390f35b34801561057657600080fd5b5061057f61178c565b60405161058c9190613679565b60405180910390f35b6105af60048036038101906105aa9190613919565b611792565b6040516105bc9190613679565b60405180910390f35b3480156105d157600080fd5b506105ec60048036038101906105e79190613a32565b611ad9565b005b3480156105fa57600080fd5b5061061560048036038101906106109190613b13565b611c6d565b6040516106229190612e8a565b60405180910390f35b34801561063757600080fd5b50610652600480360381019061064d91906135f0565b611d01565b005b34801561066057600080fd5b5061067b60048036038101906106769190612f8d565b611d4e565b6040516106889190612e8a565b60405180910390f35b60007f80ac58cd000000000000000000000000000000000000000000000000000000007bffffffffffffffffffffffffffffffffffffffffffffffffffffffff1916827bffffffffffffffffffffffffffffffffffffffffffffffffffffffff1916148061075c57507f5b5e139f000000000000000000000000000000000000000000000000000000007bffffffffffffffffffffffffffffffffffffffffffffffffffffffff1916827bffffffffffffffffffffffffffffffffffffffffffffffffffffffff1916145b8061076c575061076b82611d7b565b5b9050919050565b60606000805461078290613b82565b80601f01602080910402602001604051908101604052809291908181526020018280546107ae90613b82565b80156107fb5780601f106107d0576101008083540402835291602001916107fb565b820191906000526020600020905b8154815290600101906020018083116107de57829003601f168201915b5050505050905090565b600061081082611de5565b6004600083815260200190815260200160002060009054906101000a900473ffffffffffffffffffffffffffffffffffffffff169050919050565b6007600082815260200190815260200160002060050160009054906101000a900460ff16156108af576040517f08c379a00000000000000000000000000000000000000000000000000000000081526004016108a690613c25565b60405180910390fd5b6108b98282611e30565b5050565b6108ce6108c8611f47565b82611f4f565b61090d576040517f08c379a000000000000000000000000000000000000000000000000000000000815260040161090490613cb7565b60405180910390fd5b610918838383611fe4565b505050565b8273ffffffffffffffffffffffffffffffffffffffff1661093d82611301565b73ffffffffffffffffffffffffffffffffffffffff1614610993576040517f08c379a000000000000000000000000000000000000000000000000000000000815260040161098a90613d49565b60405180910390fd5b6109a461099e611f47565b82611f4f565b6109e3576040517f08c379a00000000000000000000000000000000000000000000000000000000081526004016109da90613ddb565b60405180910390fd5b6007600082815260200190815260200160002060050160009054906101000a900460ff1615610a47576040517f08c379a0000000000000000000000000000000000000000000000000000000008152600401610a3e90613e6d565b60405180910390fd5b610a52838383611fe4565b505050565b3373ffffffffffffffffffffffffffffffffffffffff166007600083815260200190815260200160002060010160009054906101000a900473ffffffffffffffffffffffffffffffffffffffff1673ffffffffffffffffffffffffffffffffffffffff1614610afb576040517f08c379a0000000000000000000000000000000000000000000000000000000008152600401610af290613eff565b60405180910390fd5b6007600082815260200190815260200160002060050160009054906101000a900460ff1615610b5f576040517f08c379a0000000000000000000000000000000000000000000000000000000008152600401610b5690613f6b565b60405180910390fd5b60016007600083815260200190815260200160002060050160006101000a81548160ff0219169083151502179055503373ffffffffffffffffffffffffffffffffffffffff166108fc662386f26fc100009081150290604051600060405180830381858888f19350505050158015610bdb573d6000803e3d6000fd5b50807fb490f1ec17da93882283ddc104a23e4f0a4528f77143cd834b3dd8b148f9de5460405160405180910390a250565b60076020528060005260406000206000915090508060000154908060010160009054906101000a900473ffffffffffffffffffffffffffffffffffffffff1690806002018054610c5b90613b82565b80601f0160208091040260200160405190810160405280929190818152602001828054610c8790613b82565b8015610cd45780601f10610ca957610100808354040283529160200191610cd4565b820191906000526020600020905b815481529060010190602001808311610cb757829003601f168201915b505050505090806003018054610ce990613b82565b80601f0160208091040260200160405190810160405280929190818152602001828054610d1590613b82565b8015610d625780601f10610d3757610100808354040283529160200191610d62565b820191906000526020600020905b815481529060010190602001808311610d4557829003601f168201915b505050505090806004018054610d7790613b82565b80601f0160208091040260200160405190810160405280929190818152602001828054610da390613b82565b8015610df05780601f10610dc557610100808354040283529160200191610df0565b820191906000526020600020905b815481529060010190602001808311610dd357829003601f168201915b5050505050908060050160009054906101000a900460ff16908060050160019054906101000a900460ff16908060050160029054906101000a900460ff1690806006018054610e3e90613b82565b80601f0160208091040260200160405190810160405280929190818152602001828054610e6a90613b82565b8015610eb75780601f10610e8c57610100808354040283529160200191610eb7565b820191906000526020600020905b815481529060010190602001808311610e9a57829003601f168201915b5050505050905089565b610ec9612c6d565b6007600083815260200190815260200160002060405180610140016040529081600082015481526020016001820160009054906101000a900473ffffffffffffffffffffffffffffffffffffffff1673ffffffffffffffffffffffffffffffffffffffff1673ffffffffffffffffffffffffffffffffffffffff168152602001600282018054610f5890613b82565b80601f0160208091040260200160405190810160405280929190818152602001828054610f8490613b82565b8015610fd15780601f10610fa657610100808354040283529160200191610fd1565b820191906000526020600020905b815481529060010190602001808311610fb457829003601f168201915b50505050508152602001600382018054610fea90613b82565b80601f016020809104026020016040519081016040528092919081815260200182805461101690613b82565b80156110635780601f1061103857610100808354040283529160200191611063565b820191906000526020600020905b81548152906001019060200180831161104657829003601f168201915b5050505050815260200160048201805461107c90613b82565b80601f01602080910402602001604051908101604052809291908181526020018280546110a890613b82565b80156110f55780601f106110ca576101008083540402835291602001916110f5565b820191906000526020600020905b8154815290600101906020018083116110d857829003601f168201915b505050505081526020016005820160009054906101000a900460ff161515151581526020016005820160019054906101000a900460ff16600281111561113e5761113d6130e4565b5b60028111156111505761114f6130e4565b5b81526020016005820160029054906101000a900460ff166002811115611179576111786130e4565b5b600281111561118b5761118a6130e4565b5b815260200160068201805461119f90613b82565b80601f01602080910402602001604051908101604052809291908181526020018280546111cb90613b82565b80156112185780601f106111ed57610100808354040283529160200191611218565b820191906000526020600020905b8154815290600101906020018083116111fb57829003601f168201915b5050505050815260200160078201805480602002602001604051908101604052809291908181526020016000905b828210156112f257838290600052602060002001805461126590613b82565b80601f016020809104026020016040519081016040528092919081815260200182805461129190613b82565b80156112de5780601f106112b3576101008083540402835291602001916112de565b820191906000526020600020905b8154815290600101906020018083116112c157829003601f168201915b505050505081526020019060010190611246565b50505050815250509050919050565b6000806008600084815260200190815260200160002060009054906101000a900473ffffffffffffffffffffffffffffffffffffffff169050600073ffffffffffffffffffffffffffffffffffffffff168173ffffffffffffffffffffffffffffffffffffffff16036113a9576040517f08c379a00000000000000000000000000000000000000000000000000000000081526004016113a090613fd7565b60405180910390fd5b80915050919050565b806007600084815260200190815260200160002060060190816113d591906141a3565b505050565b60008073ffffffffffffffffffffffffffffffffffffffff168273ffffffffffffffffffffffffffffffffffffffff160361144a576040517f08c379a0000000000000000000000000000000000000000000000000000000008152600401611441906142e7565b60405180910390fd5b600360008373ffffffffffffffffffffffffffffffffffffffff1673ffffffffffffffffffffffffffffffffffffffff168152602001908152602001600020549050919050565b6000600654905090565b6060600180546114aa90613b82565b80601f01602080910402602001604051908101604052809291908181526020018280546114d690613b82565b80156115235780601f106114f857610100808354040283529160200191611523565b820191906000526020600020905b81548152906001019060200180831161150657829003601f168201915b5050505050905090565b61153f611538611f47565b83836122dd565b5050565b61155461154e611f47565b83611f4f565b611593576040517f08c379a000000000000000000000000000000000000000000000000000000000815260040161158a90613cb7565b60405180910390fd5b61159f84848484612449565b50505050565b60006007600083815260200190815260200160002060050160019054906101000a900460ff169050919050565b600960009054906101000a900473ffffffffffffffffffffffffffffffffffffffff1673ffffffffffffffffffffffffffffffffffffffff163373ffffffffffffffffffffffffffffffffffffffff1614611662576040517f08c379a000000000000000000000000000000000000000000000000000000000815260040161165990614379565b60405180910390fd5b60065482106116a6576040517f08c379a000000000000000000000000000000000000000000000000000000000815260040161169d906143e5565b60405180910390fd5b6002808111156116b9576116b86130e4565b5b8160028111156116cc576116cb6130e4565b5b146007600084815260200190815260200160002060050160006101000a81548160ff0219169083151502179055505050565b606061170982611de5565b60006117136124a5565b90506000815111611733576040518060200160405280600081525061175e565b8061173d846124bc565b60405160200161174e929190614441565b6040516020818303038152906040525b915050919050565b600960009054906101000a900473ffffffffffffffffffffffffffffffffffffffff1681565b60065481565b60008060405180610140016040528060065481526020013373ffffffffffffffffffffffffffffffffffffffff1681526020018881526020018781526020018681526020016000151581526020018560ff1660028111156117f6576117f56130e4565b5b6002811115611808576118076130e4565b5b81526020018460ff166002811115611823576118226130e4565b5b6002811115611835576118346130e4565b5b8152602001604051806020016040528060008152508152602001600067ffffffffffffffff81111561186a576118696134c5565b5b60405190808252806020026020018201604052801561189d57816020015b60608152602001906001900390816118885790505b508152509050806007600060065481526020019081526020016000206000820151816000015560208201518160010160006101000a81548173ffffffffffffffffffffffffffffffffffffffff021916908373ffffffffffffffffffffffffffffffffffffffff160217905550604082015181600201908161191f91906141a3565b50606082015181600301908161193591906141a3565b50608082015181600401908161194b91906141a3565b5060a08201518160050160006101000a81548160ff02191690831515021790555060c08201518160050160016101000a81548160ff02191690836002811115611997576119966130e4565b5b021790555060e08201518160050160026101000a81548160ff021916908360028111156119c7576119c66130e4565b5b02179055506101008201518160060190816119e291906141a3565b50610120820151816007019080519060200190611a00929190612cfc565b5090505060066000815480929190611a1790614494565b919050555060006001600654611a2d91906144dc565b9050611a39338261258a565b336008600083815260200190815260200160002060006101000a81548173ffffffffffffffffffffffffffffffffffffffff021916908373ffffffffffffffffffffffffffffffffffffffff160217905550807f8250b7e61eb7eb379d1cb8d82f43cbda010eb85086cf878c2598dabfee0c8c558989898989604051611ac395949392919061451f565b60405180910390a2809250505095945050505050565b3373ffffffffffffffffffffffffffffffffffffffff166007600088815260200190815260200160002060010160009054906101000a900473ffffffffffffffffffffffffffffffffffffffff1673ffffffffffffffffffffffffffffffffffffffff1614611b7d576040517f08c379a0000000000000000000000000000000000000000000000000000000008152600401611b74906145f9565b60405180910390fd5b84600760008881526020019081526020016000206002019081611ba091906141a3565b5083600760008881526020019081526020016000206003019081611bc491906141a3565b5082600760008881526020019081526020016000206004019081611be891906141a3565b50816007600088815260200190815260200160002060050160016101000a81548160ff02191690836002811115611c2257611c216130e4565b5b0217905550806007600088815260200190815260200160002060050160026101000a81548160ff02191690836002811115611c6057611c5f6130e4565b5b0217905550505050505050565b6000600560008473ffffffffffffffffffffffffffffffffffffffff1673ffffffffffffffffffffffffffffffffffffffff16815260200190815260200160002060008373ffffffffffffffffffffffffffffffffffffffff1673ffffffffffffffffffffffffffffffffffffffff16815260200190815260200160002060009054906101000a900460ff16905092915050565b6007600083815260200190815260200160002060070181908060018154018082558091505060019003906000526020600020016000909190919091509081611d4991906141a3565b505050565b60006007600083815260200190815260200160002060050160009054906101000a900460ff169050919050565b60007f01ffc9a7000000000000000000000000000000000000000000000000000000007bffffffffffffffffffffffffffffffffffffffffffffffffffffffff1916827bffffffffffffffffffffffffffffffffffffffffffffffffffffffff1916149050919050565b611dee816127a7565b611e2d576040517f08c379a0000000000000000000000000000000000000000000000000000000008152600401611e2490614665565b60405180910390fd5b50565b6000611e3b826127e8565b90508073ffffffffffffffffffffffffffffffffffffffff168373ffffffffffffffffffffffffffffffffffffffff1603611eab576040517f08c379a0000000000000000000000000000000000000000000000000000000008152600401611ea2906146f7565b60405180910390fd5b8073ffffffffffffffffffffffffffffffffffffffff16611eca611f47565b73ffffffffffffffffffffffffffffffffffffffff161480611ef95750611ef881611ef3611f47565b611c6d565b5b611f38576040517f08c379a0000000000000000000000000000000000000000000000000000000008152600401611f2f90614789565b60405180910390fd5b611f42838361286e565b505050565b600033905090565b600080611f5b836127e8565b90508073ffffffffffffffffffffffffffffffffffffffff168473ffffffffffffffffffffffffffffffffffffffff161480611f9d5750611f9c8185611c6d565b5b80611fdb57508373ffffffffffffffffffffffffffffffffffffffff16611fc384610805565b73ffffffffffffffffffffffffffffffffffffffff16145b91505092915050565b8273ffffffffffffffffffffffffffffffffffffffff16612004826127e8565b73ffffffffffffffffffffffffffffffffffffffff161461205a576040517f08c379a00000000000000000000000000000000000000000000000000000000081526004016120519061481b565b60405180910390fd5b600073ffffffffffffffffffffffffffffffffffffffff168273ffffffffffffffffffffffffffffffffffffffff16036120c9576040517f08c379a00000000000000000000000000000000000000000000000000000000081526004016120c0906148ad565b60405180910390fd5b6120d68383836001612927565b8273ffffffffffffffffffffffffffffffffffffffff166120f6826127e8565b73ffffffffffffffffffffffffffffffffffffffff161461214c576040517f08c379a00000000000000000000000000000000000000000000000000000000081526004016121439061481b565b60405180910390fd5b6004600082815260200190815260200160002060006101000a81549073ffffffffffffffffffffffffffffffffffffffff02191690556001600360008573ffffffffffffffffffffffffffffffffffffffff1673ffffffffffffffffffffffffffffffffffffffff168152602001908152602001600020600082825403925050819055506001600360008473ffffffffffffffffffffffffffffffffffffffff1673ffffffffffffffffffffffffffffffffffffffff16815260200190815260200160002060008282540192505081905550816002600083815260200190815260200160002060006101000a81548173ffffffffffffffffffffffffffffffffffffffff021916908373ffffffffffffffffffffffffffffffffffffffff160217905550808273ffffffffffffffffffffffffffffffffffffffff168473ffffffffffffffffffffffffffffffffffffffff167fddf252ad1be2c89b69c2b068fc378daa952ba7f163c4a11628f55a4df523b3ef60405160405180910390a46122d8838383600161292d565b505050565b8173ffffffffffffffffffffffffffffffffffffffff168373ffffffffffffffffffffffffffffffffffffffff160361234b576040517f08c379a000000000000000000000000000000000000000000000000000000000815260040161234290614919565b60405180910390fd5b80600560008573ffffffffffffffffffffffffffffffffffffffff1673ffffffffffffffffffffffffffffffffffffffff16815260200190815260200160002060008473ffffffffffffffffffffffffffffffffffffffff1673ffffffffffffffffffffffffffffffffffffffff16815260200190815260200160002060006101000a81548160ff0219169083151502179055508173ffffffffffffffffffffffffffffffffffffffff168373ffffffffffffffffffffffffffffffffffffffff167f17307eab39ab6107e8899845ad3d59bd9653f200f220920489ca2b5937696c318360405161243c9190612e8a565b60405180910390a3505050565b612454848484611fe4565b61246084848484612933565b61249f576040517f08c379a0000000000000000000000000000000000000000000000000000000008152600401612496906149ab565b60405180910390fd5b50505050565b606060405180602001604052806000815250905090565b6060600060016124cb84612aba565b01905060008167ffffffffffffffff8111156124ea576124e96134c5565b5b6040519080825280601f01601f19166020018201604052801561251c5781602001600182028036833780820191505090505b509050600082602001820190505b60011561257f578080600190039150507f3031323334353637383961626364656600000000000000000000000000000000600a86061a8153600a8581612573576125726149cb565b5b0494506000850361252a575b819350505050919050565b600073ffffffffffffffffffffffffffffffffffffffff168273ffffffffffffffffffffffffffffffffffffffff16036125f9576040517f08c379a00000000000000000000000000000000000000000000000000000000081526004016125f090614a46565b60405180910390fd5b612602816127a7565b15612642576040517f08c379a000000000000000000000000000000000000000000000000000000000815260040161263990614ab2565b60405180910390fd5b612650600083836001612927565b612659816127a7565b15612699576040517f08c379a000000000000000000000000000000000000000000000000000000000815260040161269090614ab2565b60405180910390fd5b6001600360008473ffffffffffffffffffffffffffffffffffffffff1673ffffffffffffffffffffffffffffffffffffffff16815260200190815260200160002060008282540192505081905550816002600083815260200190815260200160002060006101000a81548173ffffffffffffffffffffffffffffffffffffffff021916908373ffffffffffffffffffffffffffffffffffffffff160217905550808273ffffffffffffffffffffffffffffffffffffffff16600073ffffffffffffffffffffffffffffffffffffffff167fddf252ad1be2c89b69c2b068fc378daa952ba7f163c4a11628f55a4df523b3ef60405160405180910390a46127a360008383600161292d565b5050565b60008073ffffffffffffffffffffffffffffffffffffffff166127c983612c0d565b73ffffffffffffffffffffffffffffffffffffffff1614159050919050565b6000806127f483612c0d565b9050600073ffffffffffffffffffffffffffffffffffffffff168173ffffffffffffffffffffffffffffffffffffffff1603612865576040517f08c379a000000000000000000000000000000000000000000000000000000000815260040161285c90614665565b60405180910390fd5b80915050919050565b816004600083815260200190815260200160002060006101000a81548173ffffffffffffffffffffffffffffffffffffffff021916908373ffffffffffffffffffffffffffffffffffffffff160217905550808273ffffffffffffffffffffffffffffffffffffffff166128e1836127e8565b73ffffffffffffffffffffffffffffffffffffffff167f8c5be1e5ebec7d5bd14f71427d1e84f3dd0314c0f7b2291e5b200ac8c7c3b92560405160405180910390a45050565b50505050565b50505050565b60006129548473ffffffffffffffffffffffffffffffffffffffff16612c4a565b15612aad578373ffffffffffffffffffffffffffffffffffffffff1663150b7a0261297d611f47565b8786866040518563ffffffff1660e01b815260040161299f9493929190614b27565b6020604051808303816000875af19250505080156129db57506040513d601f19601f820116820180604052508101906129d89190614b88565b60015b612a5d573d8060008114612a0b576040519150601f19603f3d011682016040523d82523d6000602084013e612a10565b606091505b506000815103612a55576040517f08c379a0000000000000000000000000000000000000000000000000000000008152600401612a4c906149ab565b60405180910390fd5b805181602001fd5b63150b7a0260e01b7bffffffffffffffffffffffffffffffffffffffffffffffffffffffff1916817bffffffffffffffffffffffffffffffffffffffffffffffffffffffff191614915050612ab2565b600190505b949350505050565b600080600090507a184f03e93ff9f4daa797ed6e38ed64bf6a1f0100000000000000008310612b18577a184f03e93ff9f4daa797ed6e38ed64bf6a1f0100000000000000008381612b0e57612b0d6149cb565b5b0492506040810190505b6d04ee2d6d415b85acef81000000008310612b55576d04ee2d6d415b85acef81000000008381612b4b57612b4a6149cb565b5b0492506020810190505b662386f26fc100008310612b8457662386f26fc100008381612b7a57612b796149cb565b5b0492506010810190505b6305f5e1008310612bad576305f5e1008381612ba357612ba26149cb565b5b0492506008810190505b6127108310612bd2576127108381612bc857612bc76149cb565b5b0492506004810190505b60648310612bf55760648381612beb57612bea6149cb565b5b0492506002810190505b600a8310612c04576001810190505b80915050919050565b60006002600083815260200190815260200160002060009054906101000a900473ffffffffffffffffffffffffffffffffffffffff169050919050565b6000808273ffffffffffffffffffffffffffffffffffffffff163b119050919050565b60405180610140016040528060008152602001600073ffffffffffffffffffffffffffffffffffffffff16815260200160608152602001606081526020016060815260200160001515815260200160006002811115612ccf57612cce6130e4565b5b815260200160006002811115612ce857612ce76130e4565b5b815260200160608152602001606081525090565b828054828255906000526020600020908101928215612d44579160200282015b82811115612d43578251829081612d3391906141a3565b5091602001919060010190612d1c565b5b509050612d519190612d55565b5090565b5b80821115612d755760008181612d6c9190612d79565b50600101612d56565b5090565b508054612d8590613b82565b6000825580601f10612d975750612db6565b601f016020900490600052602060002090810190612db59190612db9565b5b50565b5b80821115612dd2576000816000905550600101612dba565b5090565b6000604051905090565b600080fd5b600080fd5b60007fffffffff0000000000000000000000000000000000000000000000000000000082169050919050565b612e1f81612dea565b8114612e2a57600080fd5b50565b600081359050612e3c81612e16565b92915050565b600060208284031215612e5857612e57612de0565b5b6000612e6684828501612e2d565b91505092915050565b60008115159050919050565b612e8481612e6f565b82525050565b6000602082019050612e9f6000830184612e7b565b92915050565b600081519050919050565b600082825260208201905092915050565b60005b83811015612edf578082015181840152602081019050612ec4565b60008484015250505050565b6000601f19601f8301169050919050565b6000612f0782612ea5565b612f118185612eb0565b9350612f21818560208601612ec1565b612f2a81612eeb565b840191505092915050565b60006020820190508181036000830152612f4f8184612efc565b905092915050565b6000819050919050565b612f6a81612f57565b8114612f7557600080fd5b50565b600081359050612f8781612f61565b92915050565b600060208284031215612fa357612fa2612de0565b5b6000612fb184828501612f78565b91505092915050565b600073ffffffffffffffffffffffffffffffffffffffff82169050919050565b6000612fe582612fba565b9050919050565b612ff581612fda565b82525050565b60006020820190506130106000830184612fec565b92915050565b61301f81612fda565b811461302a57600080fd5b50565b60008135905061303c81613016565b92915050565b6000806040838503121561305957613058612de0565b5b60006130678582860161302d565b925050602061307885828601612f78565b9150509250929050565b60008060006060848603121561309b5761309a612de0565b5b60006130a98682870161302d565b93505060206130ba8682870161302d565b92505060406130cb86828701612f78565b9150509250925092565b6130de81612f57565b82525050565b7f4e487b7100000000000000000000000000000000000000000000000000000000600052602160045260246000fd5b60038110613124576131236130e4565b5b50565b600081905061313582613113565b919050565b600061314582613127565b9050919050565b6131558161313a565b82525050565b6003811061316c5761316b6130e4565b5b50565b600081905061317d8261315b565b919050565b600061318d8261316f565b9050919050565b61319d81613182565b82525050565b6000610120820190506131b9600083018c6130d5565b6131c6602083018b612fec565b81810360408301526131d8818a612efc565b905081810360608301526131ec8189612efc565b905081810360808301526132008188612efc565b905061320f60a0830187612e7b565b61321c60c083018661314c565b61322960e0830185613194565b81810361010083015261323c8184612efc565b90509a9950505050505050505050565b61325581612f57565b82525050565b61326481612fda565b82525050565b600082825260208201905092915050565b600061328682612ea5565b613290818561326a565b93506132a0818560208601612ec1565b6132a981612eeb565b840191505092915050565b6132bd81612e6f565b82525050565b6132cc8161313a565b82525050565b6132db81613182565b82525050565b600081519050919050565b600082825260208201905092915050565b6000819050602082019050919050565b6000613319838361327b565b905092915050565b6000602082019050919050565b6000613339826132e1565b61334381856132ec565b935083602082028501613355856132fd565b8060005b858110156133915784840389528151613372858261330d565b945061337d83613321565b925060208a01995050600181019050613359565b50829750879550505050505092915050565b6000610140830160008301516133bc600086018261324c565b5060208301516133cf602086018261325b565b50604083015184820360408601526133e7828261327b565b91505060608301518482036060860152613401828261327b565b9150506080830151848203608086015261341b828261327b565b91505060a083015161343060a08601826132b4565b5060c083015161344360c08601826132c3565b5060e083015161345660e08601826132d2565b50610100830151848203610100860152613470828261327b565b91505061012083015184820361012086015261348c828261332e565b9150508091505092915050565b600060208201905081810360008301526134b381846133a3565b905092915050565b600080fd5b600080fd5b7f4e487b7100000000000000000000000000000000000000000000000000000000600052604160045260246000fd5b6134fd82612eeb565b810181811067ffffffffffffffff8211171561351c5761351b6134c5565b5b80604052505050565b600061352f612dd6565b905061353b82826134f4565b919050565b600067ffffffffffffffff82111561355b5761355a6134c5565b5b61356482612eeb565b9050602081019050919050565b82818337600083830152505050565b600061359361358e84613540565b613525565b9050828152602081018484840111156135af576135ae6134c0565b5b6135ba848285613571565b509392505050565b600082601f8301126135d7576135d66134bb565b5b81356135e7848260208601613580565b91505092915050565b6000806040838503121561360757613606612de0565b5b600061361585828601612f78565b925050602083013567ffffffffffffffff81111561363657613635612de5565b5b613642858286016135c2565b9150509250929050565b60006020828403121561366257613661612de0565b5b60006136708482850161302d565b91505092915050565b600060208201905061368e60008301846130d5565b92915050565b61369d81612e6f565b81146136a857600080fd5b50565b6000813590506136ba81613694565b92915050565b600080604083850312156136d7576136d6612de0565b5b60006136e58582860161302d565b92505060206136f6858286016136ab565b9150509250929050565b600067ffffffffffffffff82111561371b5761371a6134c5565b5b61372482612eeb565b9050602081019050919050565b600061374461373f84613700565b613525565b9050828152602081018484840111156137605761375f6134c0565b5b61376b848285613571565b509392505050565b600082601f830112613788576137876134bb565b5b8135613798848260208601613731565b91505092915050565b600080600080608085870312156137bb576137ba612de0565b5b60006137c98782880161302d565b94505060206137da8782880161302d565b93505060406137eb87828801612f78565b925050606085013567ffffffffffffffff81111561380c5761380b612de5565b5b61381887828801613773565b91505092959194509250565b6000602082019050613839600083018461314c565b92915050565b6003811061384c57600080fd5b50565b60008135905061385e8161383f565b92915050565b6000806040838503121561387b5761387a612de0565b5b600061388985828601612f78565b925050602061389a8582860161384f565b9150509250929050565b60006138af82612fba565b9050919050565b6138bf816138a4565b82525050565b60006020820190506138da60008301846138b6565b92915050565b600060ff82169050919050565b6138f6816138e0565b811461390157600080fd5b50565b600081359050613913816138ed565b92915050565b600080600080600060a0868803121561393557613934612de0565b5b600086013567ffffffffffffffff81111561395357613952612de5565b5b61395f888289016135c2565b955050602086013567ffffffffffffffff8111156139805761397f612de5565b5b61398c888289016135c2565b945050604086013567ffffffffffffffff8111156139ad576139ac612de5565b5b6139b9888289016135c2565b93505060606139ca88828901613904565b92505060806139db88828901613904565b9150509295509295909350565b600381106139f557600080fd5b50565b600081359050613a07816139e8565b92915050565b60038110613a1a57600080fd5b50565b600081359050613a2c81613a0d565b92915050565b60008060008060008060c08789031215613a4f57613a4e612de0565b5b6000613a5d89828a01612f78565b965050602087013567ffffffffffffffff811115613a7e57613a7d612de5565b5b613a8a89828a016135c2565b955050604087013567ffffffffffffffff811115613aab57613aaa612de5565b5b613ab789828a016135c2565b945050606087013567ffffffffffffffff811115613ad857613ad7612de5565b5b613ae489828a016135c2565b9350506080613af589828a016139f8565b92505060a0613b0689828a01613a1d565b9150509295509295509295565b60008060408385031215613b2a57613b29612de0565b5b6000613b388582860161302d565b9250506020613b498582860161302d565b9150509250929050565b7f4e487b7100000000000000000000000000000000000000000000000000000000600052602260045260246000fd5b60006002820490506001821680613b9a57607f821691505b602082108103613bad57613bac613b53565b5b50919050565b7f5265736f6c766564207469636b65742063616e6e6f7420626520617070726f7660008201527f656420666f72207472616e736665720000000000000000000000000000000000602082015250565b6000613c0f602f83612eb0565b9150613c1a82613bb3565b604082019050919050565b60006020820190508181036000830152613c3e81613c02565b9050919050565b7f4552433732313a2063616c6c6572206973206e6f7420746f6b656e206f776e6560008201527f72206f7220617070726f76656400000000000000000000000000000000000000602082015250565b6000613ca1602d83612eb0565b9150613cac82613c45565b604082019050919050565b60006020820190508181036000830152613cd081613c94565b9050919050565b7f4552433732313a207472616e73666572206f6620746f6b656e2074686174206960008201527f73206e6f74206f776e0000000000000000000000000000000000000000000000602082015250565b6000613d33602983612eb0565b9150613d3e82613cd7565b604082019050919050565b60006020820190508181036000830152613d6281613d26565b9050919050565b7f4552433732313a207472616e736665722063616c6c6572206973206e6f74206f60008201527f776e6572206e6f7220617070726f766564000000000000000000000000000000602082015250565b6000613dc5603183612eb0565b9150613dd082613d69565b604082019050919050565b60006020820190508181036000830152613df481613db8565b9050919050565b7f5265736f6c766564207469636b65742063616e6e6f74206265207472616e736660008201527f6572726564000000000000000000000000000000000000000000000000000000602082015250565b6000613e57602583612eb0565b9150613e6282613dfb565b604082019050919050565b60006020820190508181036000830152613e8681613e4a565b9050919050565b7f4f6e6c79207469636b65742063726561746f722063616e207265736f6c76652060008201527f7469636b65740000000000000000000000000000000000000000000000000000602082015250565b6000613ee9602683612eb0565b9150613ef482613e8d565b604082019050919050565b60006020820190508181036000830152613f1881613edc565b9050919050565b7f5469636b657420616c7265616479207265736f6c766564000000000000000000600082015250565b6000613f55601783612eb0565b9150613f6082613f1f565b602082019050919050565b60006020820190508181036000830152613f8481613f48565b9050919050565b7f4e6f20546f6b656e204578697374730000000000000000000000000000000000600082015250565b6000613fc1600f83612eb0565b9150613fcc82613f8b565b602082019050919050565b60006020820190508181036000830152613ff081613fb4565b9050919050565b60008190508160005260206000209050919050565b60006020601f8301049050919050565b600082821b905092915050565b6000600883026140597fffffffffffffffffffffffffffffffffffffffffffffffffffffffffffffffff8261401c565b614063868361401c565b95508019841693508086168417925050509392505050565b6000819050919050565b60006140a061409b61409684612f57565b61407b565b612f57565b9050919050565b6000819050919050565b6140ba83614085565b6140ce6140c6826140a7565b848454614029565b825550505050565b600090565b6140e36140d6565b6140ee8184846140b1565b505050565b5b81811015614112576141076000826140db565b6001810190506140f4565b5050565b601f8211156141575761412881613ff7565b6141318461400c565b81016020851015614140578190505b61415461414c8561400c565b8301826140f3565b50505b505050565b600082821c905092915050565b600061417a6000198460080261415c565b1980831691505092915050565b60006141938383614169565b9150826002028217905092915050565b6141ac82612ea5565b67ffffffffffffffff8111156141c5576141c46134c5565b5b6141cf8254613b82565b6141da828285614116565b600060209050601f83116001811461420d57600084156141fb578287015190505b6142058582614187565b86555061426d565b601f19841661421b86613ff7565b60005b828110156142435784890151825560018201915060208501945060208101905061421e565b86831015614260578489015161425c601f891682614169565b8355505b6001600288020188555050505b505050505050565b7f4552433732313a2061646472657373207a65726f206973206e6f74206120766160008201527f6c6964206f776e65720000000000000000000000000000000000000000000000602082015250565b60006142d1602983612eb0565b91506142dc82614275565b604082019050919050565b60006020820190508181036000830152614300816142c4565b9050919050565b7f4f6e6c7920636f6e7472616374206f776e65722063616e206368616e6765207460008201527f69636b6574207374617475730000000000000000000000000000000000000000602082015250565b6000614363602c83612eb0565b915061436e82614307565b604082019050919050565b6000602082019050818103600083015261439281614356565b9050919050565b7f496e76616c6964207469636b6574204944000000000000000000000000000000600082015250565b60006143cf601183612eb0565b91506143da82614399565b602082019050919050565b600060208201905081810360008301526143fe816143c2565b9050919050565b600081905092915050565b600061441b82612ea5565b6144258185614405565b9350614435818560208601612ec1565b80840191505092915050565b600061444d8285614410565b91506144598284614410565b91508190509392505050565b7f4e487b7100000000000000000000000000000000000000000000000000000000600052601160045260246000fd5b600061449f82612f57565b91507fffffffffffffffffffffffffffffffffffffffffffffffffffffffffffffffff82036144d1576144d0614465565b5b600182019050919050565b60006144e782612f57565b91506144f283612f57565b925082820390508181111561450a57614509614465565b5b92915050565b614519816138e0565b82525050565b600060a08201905081810360008301526145398188612efc565b9050818103602083015261454d8187612efc565b905081810360408301526145618186612efc565b90506145706060830185614510565b61457d6080830184614510565b9695505050505050565b7f4f6e6c79207469636b65742063726561746f722063616e20757064617465207460008201527f69636b6574000000000000000000000000000000000000000000000000000000602082015250565b60006145e3602583612eb0565b91506145ee82614587565b604082019050919050565b60006020820190508181036000830152614612816145d6565b9050919050565b7f4552433732313a20696e76616c696420746f6b656e2049440000000000000000600082015250565b600061464f601883612eb0565b915061465a82614619565b602082019050919050565b6000602082019050818103600083015261467e81614642565b9050919050565b7f4552433732313a20617070726f76616c20746f2063757272656e74206f776e6560008201527f7200000000000000000000000000000000000000000000000000000000000000602082015250565b60006146e1602183612eb0565b91506146ec82614685565b604082019050919050565b60006020820190508181036000830152614710816146d4565b9050919050565b7f4552433732313a20617070726f76652063616c6c6572206973206e6f7420746f60008201527f6b656e206f776e6572206f7220617070726f76656420666f7220616c6c000000602082015250565b6000614773603d83612eb0565b915061477e82614717565b604082019050919050565b600060208201905081810360008301526147a281614766565b9050919050565b7f4552433732313a207472616e736665722066726f6d20696e636f72726563742060008201527f6f776e6572000000000000000000000000000000000000000000000000000000602082015250565b6000614805602583612eb0565b9150614810826147a9565b604082019050919050565b60006020820190508181036000830152614834816147f8565b9050919050565b7f4552433732313a207472616e7366657220746f20746865207a65726f2061646460008201527f7265737300000000000000000000000000000000000000000000000000000000602082015250565b6000614897602483612eb0565b91506148a28261483b565b604082019050919050565b600060208201905081810360008301526148c68161488a565b9050919050565b7f4552433732313a20617070726f766520746f2063616c6c657200000000000000600082015250565b6000614903601983612eb0565b915061490e826148cd565b602082019050919050565b60006020820190508181036000830152614932816148f6565b9050919050565b7f4552433732313a207472616e7366657220746f206e6f6e20455243373231526560008201527f63656976657220696d706c656d656e7465720000000000000000000000000000602082015250565b6000614995603283612eb0565b91506149a082614939565b604082019050919050565b600060208201905081810360008301526149c481614988565b9050919050565b7f4e487b7100000000000000000000000000000000000000000000000000000000600052601260045260246000fd5b7f4552433732313a206d696e7420746f20746865207a65726f2061646472657373600082015250565b6000614a30602083612eb0565b9150614a3b826149fa565b602082019050919050565b60006020820190508181036000830152614a5f81614a23565b9050919050565b7f4552433732313a20746f6b656e20616c7265616479206d696e74656400000000600082015250565b6000614a9c601c83612eb0565b9150614aa782614a66565b602082019050919050565b60006020820190508181036000830152614acb81614a8f565b9050919050565b600081519050919050565b600082825260208201905092915050565b6000614af982614ad2565b614b038185614add565b9350614b13818560208601612ec1565b614b1c81612eeb565b840191505092915050565b6000608082019050614b3c6000830187612fec565b614b496020830186612fec565b614b5660408301856130d5565b8181036060830152614b688184614aee565b905095945050505050565b600081519050614b8281612e16565b92915050565b600060208284031215614b9e57614b9d612de0565b5b6000614bac84828501614b73565b9150509291505056fea2646970667358221220eca100d8e146e449163b7b4f6b1b4f383dce8318315bec778d213232e17de7e664736f6c63430008130033",
  "immutableReferences": {},
  "source": "//SPDX-License-Identifier: UNLICENSED\n\n//Name 1: Joshua Wajnryb\n//UBIT 1: jwajnryb\n//Person Number 1: 50366137\n\n//Name 2: Naglis Paunksnis\n//UBIT 2: naglispa\n//Person Number 2: 50306281\n\npragma solidity ^0.8.0;\n\nimport \"@openzeppelin/contracts/token/ERC721/ERC721.sol\";\n\n/*\ninterface ERC721 {\n\n   event Transfer(address indexed _from, address indexed _to, uint256 indexed _tokenId);\n   event Approval(address indexed _owner, address indexed _approved, uint256 indexed _tokenId);\n   event ApprovalForAll(address indexed _owner, address indexed _operator, bool _approved);\n\n   function balanceOf(address _owner) external view returns (uint256);\n   function ownerOf(uint256 _tokenId) external view returns (address);\n\n   function safeTransferFrom(address _from, address _to, uint256 _tokenId, bytes memory data) external payable;\n   function safeTransferFrom(address _from, address _to, uint256 _tokenId) external payable;\n   function transferFrom(address _from, address _to, uint256 _tokenId) external payable;\n\n   function approve(address _approved, uint256 _tokenId) external payable;\n   function setApprovalForAll(address _operator, bool _approved) external;\n   function getApproved(uint256 _tokenId) external view returns (address);\n   function isApprovedForAll(address _owner, address _operator) external view returns (bool);\n\n}\n\ninterface ERC721Metadata {\n\n    function name() external view returns (string memory _name);\n    function symbol() external view returns (string memory _symbol);\n    function tokenURI(uint256 _tokenId) external view returns (string memory);\n\n}\n*/\n\npragma solidity ^0.8.0;\n\ncontract ITHelpdesk is ERC721(\"CryptoTechSupport\", \"CTS\") {\n\n    enum DeviceType {Laptop, Desktop, Mobile}\n    enum TicketStatus {Open, InProgress, Resolved}\n    enum Difficulty {Easy, Medium, Hard}\n\n    struct Ticket {\n        uint256 id;\n        address user;\n        string title;\n        string issue;\n        string description;\n        bool resolved;\n        Difficulty difficulty;\n        DeviceType deviceType;\n        string solution;\n        string[] notes;\n    }\n\n    uint256 public ticketCount;\n    mapping(uint256 => Ticket) public tickets;\n    mapping (uint256 => address) private ticketOwner;\n\n    address payable public contractOwner;\n\n    constructor() {\n        contractOwner = payable(msg.sender);\n    }\n\n    ///////////////////////// Events ///////////////////////////////////\n    event TicketCreated(uint256 indexed ticketId, string title, string issue, string description, uint8 difficulty, uint8 deviceType);\n    event TicketResolved(uint256 indexed ticketId);\n\n    ////////////////////////////// Contract Specific Functions /////////////////////////////////////////\n    function createTicket(string memory _title, string memory _issue, string memory _description, uint8 _difficulty, uint8 _deviceType) public payable returns (uint256) {\n       // uint256 paymentAmount = 10**16; // 0.01 ETH\n\n        Ticket memory newTicket = Ticket(ticketCount, msg.sender, _title, _issue, _description, false, Difficulty(_difficulty), DeviceType(_deviceType), \"\", new string[](0));\n        tickets[ticketCount] = newTicket;\n        ticketCount++;\n\n        // Transfer payment to contract owner\n        //contractOwner.transfer(paymentAmount);\n\n        uint256 newTicketId = ticketCount - 1;\n\n        _mint(msg.sender, newTicketId); // Mint the NFT for the new ticket\n        ticketOwner[newTicketId] = msg.sender;\n\n        emit TicketCreated(newTicketId, _title, _issue, _description, _difficulty, _deviceType);\n        return newTicketId;\n    }\n\n    function updateTicket(uint256 _ticketId, string memory _title, string memory _issue, string memory _description, Difficulty _difficulty, DeviceType _deviceType) public {\n        require(tickets[_ticketId].user == msg.sender, \"Only ticket creator can update ticket\");\n        tickets[_ticketId].title = _title;\n        tickets[_ticketId].issue = _issue;\n        tickets[_ticketId].description = _description;\n        tickets[_ticketId].difficulty = _difficulty;\n        tickets[_ticketId].deviceType = _deviceType;\n    }\n\n    function changeStatus(uint256 _ticketId, TicketStatus _status) public {\n        require(msg.sender == contractOwner, \"Only contract owner can change ticket status\");\n        require(_ticketId < ticketCount, \"Invalid ticket ID\");\n        tickets[_ticketId].resolved = (_status == TicketStatus.Resolved);\n}\n    //irrelevant, merged into resolveTicket\n    function ticketSolution(uint256 _ticketId, string memory _solution) public {\n        tickets[_ticketId].solution = _solution;\n    }\n\n    function ticketNotes(uint256 _ticketId, string memory _note) public {\n        tickets[_ticketId].notes.push(_note);\n    }\n\n    //Once the ticket is resolved it can be bought and traded as an NFT\n    function resolveTicket(uint256 _ticketId) public {\n        require(tickets[_ticketId].user == msg.sender, \"Only ticket creator can resolve ticket\");\n        require(!tickets[_ticketId].resolved, \"Ticket already resolved\");\n        tickets[_ticketId].resolved = true;\n        payable(msg.sender).transfer(0.01 ether);\n        emit TicketResolved(_ticketId);   \n    }\n\n\n    // View Functions //\n\n    //NEW FUNCTION: fetches tickets\n    function fetchTicket(uint256 _ticketId) public view returns (Ticket memory) {\n        return tickets[_ticketId];\n    }\n\n    function getTicketStatus(uint256 _ticketId) public view returns (bool) {\n        return tickets[_ticketId].resolved;\n    }\n\n    function getTicketDifficulty(uint256 _ticketId) public view returns (Difficulty) {\n        return tickets[_ticketId].difficulty;\n    }\n\n    function getNumberOfTickets() public view returns (uint256) {\n        return ticketCount;\n    }\n\n    /////////////////////// ERC721 Specific Functions ////////////////////////////////////////\n\n    function safeTransferFrom(address from, address to, uint256 tokenId) public virtual override {\n        require(ownerOf(tokenId) == from, \"ERC721: transfer of token that is not own\");\n        require(_isApprovedOrOwner(_msgSender(), tokenId), \"ERC721: transfer caller is not owner nor approved\");\n        require(!tickets[tokenId].resolved, \"Resolved ticket cannot be transferred\");\n        _transfer(from, to, tokenId);\n    }\n\n    function approve(address to, uint256 tokenId) public virtual override {\n        require(!tickets[tokenId].resolved, \"Resolved ticket cannot be approved for transfer\");\n        super.approve(to, tokenId);\n    }\n\n    function ownerOf(uint256 tokenId) public view override returns (address) {\n        address owner = ticketOwner[tokenId];\n        require(owner != address(0), \"No Token Exists\");\n        return owner;\n    }\n}\n",
  "sourcePath": "C:\\CSE426MasterFolder\\CURRENT_5_5\\BlockchainProject2\\BlockchainProject2\\CTS-contract\\contracts\\ITHelpdesk.sol",
  "compiler": {
    "name": "solc",
    "version": "0.8.19+commit.7dd6d404.Emscripten.clang"
  },
  "schemaVersion": "3.4.13",
  "updatedAt": "2023-05-13T23:48:55.236Z",
  "networkType": "ethereum",
  "devdoc": {
    "events": {
      "Approval(address,address,uint256)": {
        "details": "Emitted when `owner` enables `approved` to manage the `tokenId` token."
      },
      "ApprovalForAll(address,address,bool)": {
        "details": "Emitted when `owner` enables or disables (`approved`) `operator` to manage all of its assets."
      },
      "Transfer(address,address,uint256)": {
        "details": "Emitted when `tokenId` token is transferred from `from` to `to`."
      }
    },
    "kind": "dev",
    "methods": {
      "approve(address,uint256)": {
        "details": "See {IERC721-approve}."
      },
      "balanceOf(address)": {
        "details": "See {IERC721-balanceOf}."
      },
      "getApproved(uint256)": {
        "details": "See {IERC721-getApproved}."
      },
      "isApprovedForAll(address,address)": {
        "details": "See {IERC721-isApprovedForAll}."
      },
      "name()": {
        "details": "See {IERC721Metadata-name}."
      },
      "ownerOf(uint256)": {
        "details": "See {IERC721-ownerOf}."
      },
      "safeTransferFrom(address,address,uint256)": {
        "details": "See {IERC721-safeTransferFrom}."
      },
      "safeTransferFrom(address,address,uint256,bytes)": {
        "details": "See {IERC721-safeTransferFrom}."
      },
      "setApprovalForAll(address,bool)": {
        "details": "See {IERC721-setApprovalForAll}."
      },
      "supportsInterface(bytes4)": {
        "details": "See {IERC165-supportsInterface}."
      },
      "symbol()": {
        "details": "See {IERC721Metadata-symbol}."
      },
      "tokenURI(uint256)": {
        "details": "See {IERC721Metadata-tokenURI}."
      },
      "transferFrom(address,address,uint256)": {
        "details": "See {IERC721-transferFrom}."
      }
    },
    "version": 1
  },
  "userdoc": {
    "kind": "user",
    "methods": {},
    "version": 1
  }
}